S0170000626C696E6B657230312E666C6173682E7372656389
S3150000000000000120410000004700000047000000FA
S3150000001047000000470000004700000047000000BE
S3150000002047000000470000004700000047000000AE
S31500000030470000004700000047000000470000009E
S3150000004000F01CF8FFE7FEE7017070470078704784
S3150000005001807047008870470160704700687047EC
S315000000607047000040B110B5441E2046013CFFF722
S31500000070F7FF631CF9D110BD704700BFF8B545F610
S3150000008084211448144DFFF7E3FF1448FFF7DEFF01
S3150000009040F001011148FFF7D7FF2846FFF7D6FFCA
S315000000A0064680F0010739462846FFF7CDFF0C4C7F
S315000000B02046013CFFF7D4FF621CF9D131462846A1
S315000000C0FFF7C2FF064C2046013CFFF7C9FF631C41
S315000000D0F9D1E8E70C480040024C0040044C0040CF
S309000000E03F0D0300C7
S70500000000FA
